{
    "contractName": "CMKToken",
    "abi": [
        {
            "inputs": [],
            "stateMutability": "nonpayable",
            "type": "constructor"
        },
        {
            "anonymous": false,
            "inputs": [
                {
                    "indexed": true,
                    "internalType": "address",
                    "name": "owner",
                    "type": "address"
                },
                {
                    "indexed": true,
                    "internalType": "address",
                    "name": "spender",
                    "type": "address"
                },
                {
                    "indexed": false,
                    "internalType": "uint256",
                    "name": "value",
                    "type": "uint256"
                }
            ],
            "name": "Approval",
            "type": "event"
        },
        {
            "anonymous": false,
            "inputs": [
                {
                    "indexed": false,
                    "internalType": "address",
                    "name": "account",
                    "type": "address"
                }
            ],
            "name": "Paused",
            "type": "event"
        },
        {
            "anonymous": false,
            "inputs": [
                {
                    "indexed": true,
                    "internalType": "bytes32",
                    "name": "role",
                    "type": "bytes32"
                },
                {
                    "indexed": true,
                    "internalType": "bytes32",
                    "name": "previousAdminRole",
                    "type": "bytes32"
                },
                {
                    "indexed": true,
                    "internalType": "bytes32",
                    "name": "newAdminRole",
                    "type": "bytes32"
                }
            ],
            "name": "RoleAdminChanged",
            "type": "event"
        },
        {
            "anonymous": false,
            "inputs": [
                {
                    "indexed": true,
                    "internalType": "bytes32",
                    "name": "role",
                    "type": "bytes32"
                },
                {
                    "indexed": true,
                    "internalType": "address",
                    "name": "account",
                    "type": "address"
                },
                {
                    "indexed": true,
                    "internalType": "address",
                    "name": "sender",
                    "type": "address"
                }
            ],
            "name": "RoleGranted",
            "type": "event"
        },
        {
            "anonymous": false,
            "inputs": [
                {
                    "indexed": true,
                    "internalType": "bytes32",
                    "name": "role",
                    "type": "bytes32"
                },
                {
                    "indexed": true,
                    "internalType": "address",
                    "name": "account",
                    "type": "address"
                },
                {
                    "indexed": true,
                    "internalType": "address",
                    "name": "sender",
                    "type": "address"
                }
            ],
            "name": "RoleRevoked",
            "type": "event"
        },
        {
            "anonymous": false,
            "inputs": [
                {
                    "indexed": false,
                    "internalType": "uint256",
                    "name": "id",
                    "type": "uint256"
                }
            ],
            "name": "Snapshot",
            "type": "event"
        },
        {
            "anonymous": false,
            "inputs": [
                {
                    "indexed": true,
                    "internalType": "address",
                    "name": "from",
                    "type": "address"
                },
                {
                    "indexed": true,
                    "internalType": "address",
                    "name": "to",
                    "type": "address"
                },
                {
                    "indexed": false,
                    "internalType": "uint256",
                    "name": "value",
                    "type": "uint256"
                }
            ],
            "name": "Transfer",
            "type": "event"
        },
        {
            "anonymous": false,
            "inputs": [
                {
                    "indexed": false,
                    "internalType": "address",
                    "name": "account",
                    "type": "address"
                }
            ],
            "name": "Unpaused",
            "type": "event"
        },
        {
            "inputs": [],
            "name": "DEFAULT_ADMIN_ROLE",
            "outputs": [
                {
                    "internalType": "bytes32",
                    "name": "",
                    "type": "bytes32"
                }
            ],
            "stateMutability": "view",
            "type": "function"
        },
        {
            "inputs": [],
            "name": "DOMAIN_SEPARATOR",
            "outputs": [
                {
                    "internalType": "bytes32",
                    "name": "",
                    "type": "bytes32"
                }
            ],
            "stateMutability": "view",
            "type": "function"
        },
        {
            "inputs": [],
            "name": "PAUSER_ROLE",
            "outputs": [
                {
                    "internalType": "bytes32",
                    "name": "",
                    "type": "bytes32"
                }
            ],
            "stateMutability": "view",
            "type": "function"
        },
        {
            "inputs": [],
            "name": "SNAPSHOT_ROLE",
            "outputs": [
                {
                    "internalType": "bytes32",
                    "name": "",
                    "type": "bytes32"
                }
            ],
            "stateMutability": "view",
            "type": "function"
        },
        {
            "inputs": [
                {
                    "internalType": "address",
                    "name": "owner",
                    "type": "address"
                },
                {
                    "internalType": "address",
                    "name": "spender",
                    "type": "address"
                }
            ],
            "name": "allowance",
            "outputs": [
                {
                    "internalType": "uint256",
                    "name": "",
                    "type": "uint256"
                }
            ],
            "stateMutability": "view",
            "type": "function"
        },
        {
            "inputs": [
                {
                    "internalType": "address",
                    "name": "spender",
                    "type": "address"
                },
                {
                    "internalType": "uint256",
                    "name": "amount",
                    "type": "uint256"
                }
            ],
            "name": "approve",
            "outputs": [
                {
                    "internalType": "bool",
                    "name": "",
                    "type": "bool"
                }
            ],
            "stateMutability": "nonpayable",
            "type": "function"
        },
        {
            "inputs": [
                {
                    "internalType": "address",
                    "name": "account",
                    "type": "address"
                }
            ],
            "name": "balanceOf",
            "outputs": [
                {
                    "internalType": "uint256",
                    "name": "",
                    "type": "uint256"
                }
            ],
            "stateMutability": "view",
            "type": "function"
        },
        {
            "inputs": [
                {
                    "internalType": "address",
                    "name": "account",
                    "type": "address"
                },
                {
                    "internalType": "uint256",
                    "name": "snapshotId",
                    "type": "uint256"
                }
            ],
            "name": "balanceOfAt",
            "outputs": [
                {
                    "internalType": "uint256",
                    "name": "",
                    "type": "uint256"
                }
            ],
            "stateMutability": "view",
            "type": "function"
        },
        {
            "inputs": [
                {
                    "internalType": "uint256",
                    "name": "amount",
                    "type": "uint256"
                }
            ],
            "name": "burn",
            "outputs": [],
            "stateMutability": "nonpayable",
            "type": "function"
        },
        {
            "inputs": [
                {
                    "internalType": "address",
                    "name": "account",
                    "type": "address"
                },
                {
                    "internalType": "uint256",
                    "name": "amount",
                    "type": "uint256"
                }
            ],
            "name": "burnFrom",
            "outputs": [],
            "stateMutability": "nonpayable",
            "type": "function"
        },
        {
            "inputs": [],
            "name": "decimals",
            "outputs": [
                {
                    "internalType": "uint8",
                    "name": "",
                    "type": "uint8"
                }
            ],
            "stateMutability": "view",
            "type": "function"
        },
        {
            "inputs": [
                {
                    "internalType": "address",
                    "name": "spender",
                    "type": "address"
                },
                {
                    "internalType": "uint256",
                    "name": "subtractedValue",
                    "type": "uint256"
                }
            ],
            "name": "decreaseAllowance",
            "outputs": [
                {
                    "internalType": "bool",
                    "name": "",
                    "type": "bool"
                }
            ],
            "stateMutability": "nonpayable",
            "type": "function"
        },
        {
            "inputs": [
                {
                    "internalType": "bytes32",
                    "name": "role",
                    "type": "bytes32"
                }
            ],
            "name": "getRoleAdmin",
            "outputs": [
                {
                    "internalType": "bytes32",
                    "name": "",
                    "type": "bytes32"
                }
            ],
            "stateMutability": "view",
            "type": "function"
        },
        {
            "inputs": [
                {
                    "internalType": "bytes32",
                    "name": "role",
                    "type": "bytes32"
                },
                {
                    "internalType": "address",
                    "name": "account",
                    "type": "address"
                }
            ],
            "name": "grantRole",
            "outputs": [],
            "stateMutability": "nonpayable",
            "type": "function"
        },
        {
            "inputs": [
                {
                    "internalType": "bytes32",
                    "name": "role",
                    "type": "bytes32"
                },
                {
                    "internalType": "address",
                    "name": "account",
                    "type": "address"
                }
            ],
            "name": "hasRole",
            "outputs": [
                {
                    "internalType": "bool",
                    "name": "",
                    "type": "bool"
                }
            ],
            "stateMutability": "view",
            "type": "function"
        },
        {
            "inputs": [
                {
                    "internalType": "address",
                    "name": "spender",
                    "type": "address"
                },
                {
                    "internalType": "uint256",
                    "name": "addedValue",
                    "type": "uint256"
                }
            ],
            "name": "increaseAllowance",
            "outputs": [
                {
                    "internalType": "bool",
                    "name": "",
                    "type": "bool"
                }
            ],
            "stateMutability": "nonpayable",
            "type": "function"
        },
        {
            "inputs": [],
            "name": "name",
            "outputs": [
                {
                    "internalType": "string",
                    "name": "",
                    "type": "string"
                }
            ],
            "stateMutability": "view",
            "type": "function"
        },
        {
            "inputs": [
                {
                    "internalType": "address",
                    "name": "owner",
                    "type": "address"
                }
            ],
            "name": "nonces",
            "outputs": [
                {
                    "internalType": "uint256",
                    "name": "",
                    "type": "uint256"
                }
            ],
            "stateMutability": "view",
            "type": "function"
        },
        {
            "inputs": [],
            "name": "paused",
            "outputs": [
                {
                    "internalType": "bool",
                    "name": "",
                    "type": "bool"
                }
            ],
            "stateMutability": "view",
            "type": "function"
        },
        {
            "inputs": [
                {
                    "internalType": "address",
                    "name": "owner",
                    "type": "address"
                },
                {
                    "internalType": "address",
                    "name": "spender",
                    "type": "address"
                },
                {
                    "internalType": "uint256",
                    "name": "value",
                    "type": "uint256"
                },
                {
                    "internalType": "uint256",
                    "name": "deadline",
                    "type": "uint256"
                },
                {
                    "internalType": "uint8",
                    "name": "v",
                    "type": "uint8"
                },
                {
                    "internalType": "bytes32",
                    "name": "r",
                    "type": "bytes32"
                },
                {
                    "internalType": "bytes32",
                    "name": "s",
                    "type": "bytes32"
                }
            ],
            "name": "permit",
            "outputs": [],
            "stateMutability": "nonpayable",
            "type": "function"
        },
        {
            "inputs": [
                {
                    "internalType": "bytes32",
                    "name": "role",
                    "type": "bytes32"
                },
                {
                    "internalType": "address",
                    "name": "account",
                    "type": "address"
                }
            ],
            "name": "renounceRole",
            "outputs": [],
            "stateMutability": "nonpayable",
            "type": "function"
        },
        {
            "inputs": [
                {
                    "internalType": "bytes32",
                    "name": "role",
                    "type": "bytes32"
                },
                {
                    "internalType": "address",
                    "name": "account",
                    "type": "address"
                }
            ],
            "name": "revokeRole",
            "outputs": [],
            "stateMutability": "nonpayable",
            "type": "function"
        },
        {
            "inputs": [
                {
                    "internalType": "bytes4",
                    "name": "interfaceId",
                    "type": "bytes4"
                }
            ],
            "name": "supportsInterface",
            "outputs": [
                {
                    "internalType": "bool",
                    "name": "",
                    "type": "bool"
                }
            ],
            "stateMutability": "view",
            "type": "function"
        },
        {
            "inputs": [],
            "name": "symbol",
            "outputs": [
                {
                    "internalType": "string",
                    "name": "",
                    "type": "string"
                }
            ],
            "stateMutability": "view",
            "type": "function"
        },
        {
            "inputs": [],
            "name": "totalSupply",
            "outputs": [
                {
                    "internalType": "uint256",
                    "name": "",
                    "type": "uint256"
                }
            ],
            "stateMutability": "view",
            "type": "function"
        },
        {
            "inputs": [
                {
                    "internalType": "uint256",
                    "name": "snapshotId",
                    "type": "uint256"
                }
            ],
            "name": "totalSupplyAt",
            "outputs": [
                {
                    "internalType": "uint256",
                    "name": "",
                    "type": "uint256"
                }
            ],
            "stateMutability": "view",
            "type": "function"
        },
        {
            "inputs": [
                {
                    "internalType": "address",
                    "name": "recipient",
                    "type": "address"
                },
                {
                    "internalType": "uint256",
                    "name": "amount",
                    "type": "uint256"
                }
            ],
            "name": "transfer",
            "outputs": [
                {
                    "internalType": "bool",
                    "name": "",
                    "type": "bool"
                }
            ],
            "stateMutability": "nonpayable",
            "type": "function"
        },
        {
            "inputs": [
                {
                    "internalType": "address",
                    "name": "sender",
                    "type": "address"
                },
                {
                    "internalType": "address",
                    "name": "recipient",
                    "type": "address"
                },
                {
                    "internalType": "uint256",
                    "name": "amount",
                    "type": "uint256"
                }
            ],
            "name": "transferFrom",
            "outputs": [
                {
                    "internalType": "bool",
                    "name": "",
                    "type": "bool"
                }
            ],
            "stateMutability": "nonpayable",
            "type": "function"
        },
        {
            "inputs": [],
            "name": "snapshot",
            "outputs": [],
            "stateMutability": "nonpayable",
            "type": "function"
        },
        {
            "inputs": [],
            "name": "pause",
            "outputs": [],
            "stateMutability": "nonpayable",
            "type": "function"
        },
        {
            "inputs": [],
            "name": "unpause",
            "outputs": [],
            "stateMutability": "nonpayable",
            "type": "function"
        }
    ],
    "bytecode": "0x6101406040527f6e71edae12b1b97f4d1f60370fef10105fa2faae0126114a169c64845d6126c9610120908152503480156200003a57600080fd5b506040518060400160405280600881526020017f437265646d61726b000000000000000000000000000000000000000000000000815250806040518060400160405280600181526020017f31000000000000000000000000000000000000000000000000000000000000008152506040518060400160405280600881526020017f437265646d61726b0000000000000000000000000000000000000000000000008152506040518060400160405280600381526020017f434d4b000000000000000000000000000000000000000000000000000000000081525081600390805190602001906200012c9291906200093e565b508060049080519060200190620001459291906200093e565b5050506000600a60006101000a81548160ff02191690831515021790555060008280519060200120905060008280519060200120905060007f8b73c3c69bb8fe3d512ecc4cf759cc79239f7b179b0ffacaa9a75d522b39400f90508260c081815250508160e081815250504660a08181525050620001cb818484620002a060201b60201c565b60808181525050806101008181525050505050505050620001f66000801b33620002dc60201b60201c565b620002287f5fdbd35e8da83ee755d5e62a539e5ed7f47126abede0b8b10f9ea43dc6eed07f33620002dc60201b60201c565b6200025a7f65d7a28e3265b37a6474929f336521b332c1681b933f6cb9f3376673440d862a33620002dc60201b60201c565b6200029a336200026f620002f260201b60201c565b600a6200027d919062000bf6565b6305f5e1006200028e919062000d33565b620002fb60201b60201c565b62000f17565b60008383834630604051602001620002bd95949392919062000a6f565b6040516020818303038152906040528051906020012090509392505050565b620002ee82826200046060201b60201c565b5050565b60006012905090565b600073ffffffffffffffffffffffffffffffffffffffff168273ffffffffffffffffffffffffffffffffffffffff1614156200036e576040517f08c379a0000000000000000000000000000000000000000000000000000000008152600401620003659062000aee565b60405180910390fd5b62000382600083836200055260201b60201c565b806002600082825462000396919062000b3e565b92505081905550806000808473ffffffffffffffffffffffffffffffffffffffff1673ffffffffffffffffffffffffffffffffffffffff1681526020019081526020016000206000828254620003ed919062000b3e565b925050819055508173ffffffffffffffffffffffffffffffffffffffff16600073ffffffffffffffffffffffffffffffffffffffff167fddf252ad1be2c89b69c2b068fc378daa952ba7f163c4a11628f55a4df523b3ef8360405162000454919062000b10565b60405180910390a35050565b620004728282620005c260201b60201c565b6200054e5760016009600084815260200190815260200160002060000160008373ffffffffffffffffffffffffffffffffffffffff1673ffffffffffffffffffffffffffffffffffffffff16815260200190815260200160002060006101000a81548160ff021916908315150217905550620004f36200062d60201b60201c565b73ffffffffffffffffffffffffffffffffffffffff168173ffffffffffffffffffffffffffffffffffffffff16837f2f8788117e7eff1d82e926ec794901d17c78024a50270940304540a733656f0d60405160405180910390a45b5050565b620005626200063560201b60201c565b15620005a5576040517f08c379a00000000000000000000000000000000000000000000000000000000081526004016200059c9062000acc565b60405180910390fd5b620005bd8383836200064c60201b620010e31760201c565b505050565b60006009600084815260200190815260200160002060000160008373ffffffffffffffffffffffffffffffffffffffff1673ffffffffffffffffffffffffffffffffffffffff16815260200190815260200160002060009054906101000a900460ff16905092915050565b600033905090565b6000600a60009054906101000a900460ff16905090565b620006648383836200074760201b6200119d1760201c565b600073ffffffffffffffffffffffffffffffffffffffff168373ffffffffffffffffffffffffffffffffffffffff161415620006c157620006ab826200074c60201b60201c565b620006bb620007af60201b60201c565b62000742565b600073ffffffffffffffffffffffffffffffffffffffff168273ffffffffffffffffffffffffffffffffffffffff1614156200071e5762000708836200074c60201b60201c565b62000718620007af60201b60201c565b62000741565b6200072f836200074c60201b60201c565b62000740826200074c60201b60201c565b5b5b505050565b505050565b620007ac600560008373ffffffffffffffffffffffffffffffffffffffff1673ffffffffffffffffffffffffffffffffffffffff168152602001908152602001600020620007a083620007d360201b60201c565b6200081b60201b60201c565b50565b620007d16006620007c5620008ae60201b60201c565b6200081b60201b60201c565b565b60008060008373ffffffffffffffffffffffffffffffffffffffff1673ffffffffffffffffffffffffffffffffffffffff168152602001908152602001600020549050919050565b6000620008346008620008b860201b620011a21760201c565b9050806200084b84600001620008c660201b60201c565b1015620008a95782600001819080600181540180825580915050600190039060005260206000200160009091909190915055826001018290806001815401808255809150506001900390600052602060002001600090919091909150555b505050565b6000600254905090565b600081600001549050919050565b60008082805490501415620008df576000905062000939565b8160018380549050620008f3919062000d94565b815481106200092b577f4e487b7100000000000000000000000000000000000000000000000000000000600052603260045260246000fd5b906000526020600020015490505b919050565b8280546200094c9062000e24565b90600052602060002090601f016020900481019282620009705760008555620009bc565b82601f106200098b57805160ff1916838001178555620009bc565b82800160010185558215620009bc579182015b82811115620009bb5782518255916020019190600101906200099e565b5b509050620009cb9190620009cf565b5090565b5b80821115620009ea576000816000905550600101620009d0565b5090565b620009f98162000dcf565b82525050565b62000a0a8162000de3565b82525050565b600062000a1f60108362000b2d565b915062000a2c8262000ec5565b602082019050919050565b600062000a46601f8362000b2d565b915062000a538262000eee565b602082019050919050565b62000a698162000e0d565b82525050565b600060a08201905062000a866000830188620009ff565b62000a956020830187620009ff565b62000aa46040830186620009ff565b62000ab3606083018562000a5e565b62000ac26080830184620009ee565b9695505050505050565b6000602082019050818103600083015262000ae78162000a10565b9050919050565b6000602082019050818103600083015262000b098162000a37565b9050919050565b600060208201905062000b27600083018462000a5e565b92915050565b600082825260208201905092915050565b600062000b4b8262000e0d565b915062000b588362000e0d565b9250827fffffffffffffffffffffffffffffffffffffffffffffffffffffffffffffffff0382111562000b905762000b8f62000e5a565b5b828201905092915050565b6000808291508390505b600185111562000bed5780860481111562000bc55762000bc462000e5a565b5b600185161562000bd55780820291505b808102905062000be58562000eb8565b945062000ba5565b94509492505050565b600062000c038262000e0d565b915062000c108362000e17565b925062000c3f7fffffffffffffffffffffffffffffffffffffffffffffffffffffffffffffffff848462000c47565b905092915050565b60008262000c59576001905062000d2c565b8162000c69576000905062000d2c565b816001811462000c82576002811462000c8d5762000cc3565b600191505062000d2c565b60ff84111562000ca25762000ca162000e5a565b5b8360020a91508482111562000cbc5762000cbb62000e5a565b5b5062000d2c565b5060208310610133831016604e8410600b841016171562000cfd5782820a90508381111562000cf75762000cf662000e5a565b5b62000d2c565b62000d0c848484600162000b9b565b9250905081840481111562000d265762000d2562000e5a565b5b81810290505b9392505050565b600062000d408262000e0d565b915062000d4d8362000e0d565b9250817fffffffffffffffffffffffffffffffffffffffffffffffffffffffffffffffff048311821515161562000d895762000d8862000e5a565b5b828202905092915050565b600062000da18262000e0d565b915062000dae8362000e0d565b92508282101562000dc45762000dc362000e5a565b5b828203905092915050565b600062000ddc8262000ded565b9050919050565b6000819050919050565b600073ffffffffffffffffffffffffffffffffffffffff82169050919050565b6000819050919050565b600060ff82169050919050565b6000600282049050600182168062000e3d57607f821691505b6020821081141562000e545762000e5362000e89565b5b50919050565b7f4e487b7100000000000000000000000000000000000000000000000000000000600052601160045260246000fd5b7f4e487b7100000000000000000000000000000000000000000000000000000000600052602260045260246000fd5b60008160011c9050919050565b7f5061757361626c653a2070617573656400000000000000000000000000000000600082015250565b7f45524332303a206d696e7420746f20746865207a65726f206164647265737300600082015250565b60805160a05160c05160e0516101005161012051613bed62000f676000396000610f14015260006118410152600061188301526000611862015260006117ee015260006118160152613bed6000f3fe608060405234801561001057600080fd5b50600436106101e55760003560e01c80637028e2cd1161010f578063981b24d0116100a2578063d505accf11610071578063d505accf146105a8578063d547741f146105c4578063dd62ed3e146105e0578063e63ab1e914610610576101e5565b8063981b24d0146104fa578063a217fddf1461052a578063a457c2d714610548578063a9059cbb14610578576101e5565b80638456cb59116100de5780638456cb591461049857806391d14854146104a257806395d89b41146104d25780639711715a146104f0576101e5565b80637028e2cd146103fe57806370a082311461041c57806379cc67901461044c5780637ecebe0014610468576101e5565b8063313ce567116101875780633f4ba83a116101565780633f4ba83a1461038a57806342966c68146103945780634ee2cd7e146103b05780635c975abb146103e0576101e5565b8063313ce567146103025780633644e5151461032057806336568abe1461033e578063395093511461035a576101e5565b806318160ddd116101c357806318160ddd1461026857806323b872dd14610286578063248a9ca3146102b65780632f2ff15d146102e6576101e5565b806301ffc9a7146101ea57806306fdde031461021a578063095ea7b314610238575b600080fd5b61020460048036038101906101ff9190612936565b61062e565b6040516102119190612e28565b60405180910390f35b6102226106a8565b60405161022f9190612f57565b60405180910390f35b610252600480360381019061024d9190612895565b61073a565b60405161025f9190612e28565b60405180910390f35b610270610758565b60405161027d9190613219565b60405180910390f35b6102a0600480360381019061029b91906127a8565b610762565b6040516102ad9190612e28565b60405180910390f35b6102d060048036038101906102cb91906128d1565b610863565b6040516102dd9190612e43565b60405180910390f35b61030060048036038101906102fb91906128fa565b610883565b005b61030a6108ac565b6040516103179190613234565b60405180910390f35b6103286108b5565b6040516103359190612e43565b60405180910390f35b610358600480360381019061035391906128fa565b6108c4565b005b610374600480360381019061036f9190612895565b610947565b6040516103819190612e28565b60405180910390f35b6103926109f3565b005b6103ae60048036038101906103a9919061295f565b610a30565b005b6103ca60048036038101906103c59190612895565b610a44565b6040516103d79190613219565b60405180910390f35b6103e8610ab4565b6040516103f59190612e28565b60405180910390f35b610406610acb565b6040516104139190612e43565b60405180910390f35b61043660048036038101906104319190612743565b610aef565b6040516104439190613219565b60405180910390f35b61046660048036038101906104619190612895565b610b37565b005b610482600480360381019061047d9190612743565b610bbb565b60405161048f9190613219565b60405180910390f35b6104a0610c0b565b005b6104bc60048036038101906104b791906128fa565b610c48565b6040516104c99190612e28565b60405180910390f35b6104da610cb3565b6040516104e79190612f57565b60405180910390f35b6104f8610d45565b005b610514600480360381019061050f919061295f565b610d83565b6040516105219190613219565b60405180910390f35b610532610db4565b60405161053f9190612e43565b60405180910390f35b610562600480360381019061055d9190612895565b610dbb565b60405161056f9190612e28565b60405180910390f35b610592600480360381019061058d9190612895565b610eaf565b60405161059f9190612e28565b60405180910390f35b6105c260048036038101906105bd91906127f7565b610ecd565b005b6105de60048036038101906105d991906128fa565b61100f565b005b6105fa60048036038101906105f5919061276c565b611038565b6040516106079190613219565b60405180910390f35b6106186110bf565b6040516106259190612e43565b60405180910390f35b60007f7965db0b000000000000000000000000000000000000000000000000000000007bffffffffffffffffffffffffffffffffffffffffffffffffffffffff1916827bffffffffffffffffffffffffffffffffffffffffffffffffffffffff191614806106a157506106a0826111b0565b5b9050919050565b6060600380546106b790613473565b80601f01602080910402602001604051908101604052809291908181526020018280546106e390613473565b80156107305780601f1061070557610100808354040283529160200191610730565b820191906000526020600020905b81548152906001019060200180831161071357829003601f168201915b5050505050905090565b600061074e61074761121a565b8484611222565b6001905092915050565b6000600254905090565b600061076f8484846113ed565b6000600160008673ffffffffffffffffffffffffffffffffffffffff1673ffffffffffffffffffffffffffffffffffffffff16815260200190815260200160002060006107ba61121a565b73ffffffffffffffffffffffffffffffffffffffff1673ffffffffffffffffffffffffffffffffffffffff1681526020019081526020016000205490508281101561083a576040517f08c379a000000000000000000000000000000000000000000000000000000000815260040161083190613119565b60405180910390fd5b6108578561084661121a565b85846108529190613357565b611222565b60019150509392505050565b600060096000838152602001908152602001600020600101549050919050565b61088c82610863565b61089d8161089861121a565b61166c565b6108a78383611709565b505050565b60006012905090565b60006108bf6117ea565b905090565b6108cc61121a565b73ffffffffffffffffffffffffffffffffffffffff168173ffffffffffffffffffffffffffffffffffffffff1614610939576040517f08c379a0000000000000000000000000000000000000000000000000000000008152600401610930906131f9565b60405180910390fd5b61094382826118ad565b5050565b60006109e961095461121a565b84846001600061096261121a565b73ffffffffffffffffffffffffffffffffffffffff1673ffffffffffffffffffffffffffffffffffffffff16815260200190815260200160002060008873ffffffffffffffffffffffffffffffffffffffff1673ffffffffffffffffffffffffffffffffffffffff168152602001908152602001600020546109e49190613276565b611222565b6001905092915050565b610a1d7f65d7a28e3265b37a6474929f336521b332c1681b933f6cb9f3376673440d862a33610c48565b610a2657600080fd5b610a2e61198f565b565b610a41610a3b61121a565b82611a31565b50565b6000806000610a9184600560008873ffffffffffffffffffffffffffffffffffffffff1673ffffffffffffffffffffffffffffffffffffffff168152602001908152602001600020611c05565b9150915081610aa857610aa385610aef565b610aaa565b805b9250505092915050565b6000600a60009054906101000a900460ff16905090565b7f5fdbd35e8da83ee755d5e62a539e5ed7f47126abede0b8b10f9ea43dc6eed07f81565b60008060008373ffffffffffffffffffffffffffffffffffffffff1673ffffffffffffffffffffffffffffffffffffffff168152602001908152602001600020549050919050565b6000610b4a83610b4561121a565b611038565b905081811015610b8f576040517f08c379a0000000000000000000000000000000000000000000000000000000008152600401610b8690613139565b60405180910390fd5b610bac83610b9b61121a565b8484610ba79190613357565b611222565b610bb68383611a31565b505050565b6000610c04600b60008473ffffffffffffffffffffffffffffffffffffffff1673ffffffffffffffffffffffffffffffffffffffff1681526020019081526020016000206111a2565b9050919050565b610c357f65d7a28e3265b37a6474929f336521b332c1681b933f6cb9f3376673440d862a33610c48565b610c3e57600080fd5b610c46611d23565b565b60006009600084815260200190815260200160002060000160008373ffffffffffffffffffffffffffffffffffffffff1673ffffffffffffffffffffffffffffffffffffffff16815260200190815260200160002060009054906101000a900460ff16905092915050565b606060048054610cc290613473565b80601f0160208091040260200160405190810160405280929190818152602001828054610cee90613473565b8015610d3b5780601f10610d1057610100808354040283529160200191610d3b565b820191906000526020600020905b815481529060010190602001808311610d1e57829003601f168201915b5050505050905090565b610d6f7f5fdbd35e8da83ee755d5e62a539e5ed7f47126abede0b8b10f9ea43dc6eed07f33610c48565b610d7857600080fd5b610d80611dc6565b50565b6000806000610d93846006611c05565b9150915081610da957610da4610758565b610dab565b805b92505050919050565b6000801b81565b60008060016000610dca61121a565b73ffffffffffffffffffffffffffffffffffffffff1673ffffffffffffffffffffffffffffffffffffffff16815260200190815260200160002060008573ffffffffffffffffffffffffffffffffffffffff1673ffffffffffffffffffffffffffffffffffffffff16815260200190815260200160002054905082811015610e87576040517f08c379a0000000000000000000000000000000000000000000000000000000008152600401610e7e906131d9565b60405180910390fd5b610ea4610e9261121a565b858584610e9f9190613357565b611222565b600191505092915050565b6000610ec3610ebc61121a565b84846113ed565b6001905092915050565b83421115610f10576040517f08c379a0000000000000000000000000000000000000000000000000000000008152600401610f0790613059565b60405180910390fd5b60007f0000000000000000000000000000000000000000000000000000000000000000888888610f3f8c611e1e565b89604051602001610f5596959493929190612e5e565b6040516020818303038152906040528051906020012090506000610f7882611e7c565b90506000610f8882878787611e96565b90508973ffffffffffffffffffffffffffffffffffffffff168173ffffffffffffffffffffffffffffffffffffffff1614610ff8576040517f08c379a0000000000000000000000000000000000000000000000000000000008152600401610fef906130f9565b60405180910390fd5b6110038a8a8a611222565b50505050505050505050565b61101882610863565b6110298161102461121a565b61166c565b61103383836118ad565b505050565b6000600160008473ffffffffffffffffffffffffffffffffffffffff1673ffffffffffffffffffffffffffffffffffffffff16815260200190815260200160002060008373ffffffffffffffffffffffffffffffffffffffff1673ffffffffffffffffffffffffffffffffffffffff16815260200190815260200160002054905092915050565b7f65d7a28e3265b37a6474929f336521b332c1681b933f6cb9f3376673440d862a81565b6110ee83838361119d565b600073ffffffffffffffffffffffffffffffffffffffff168373ffffffffffffffffffffffffffffffffffffffff1614156111395761112c82612021565b611134612074565b611198565b600073ffffffffffffffffffffffffffffffffffffffff168273ffffffffffffffffffffffffffffffffffffffff1614156111845761117783612021565b61117f612074565b611197565b61118d83612021565b61119682612021565b5b5b505050565b505050565b600081600001549050919050565b60007f01ffc9a7000000000000000000000000000000000000000000000000000000007bffffffffffffffffffffffffffffffffffffffffffffffffffffffff1916827bffffffffffffffffffffffffffffffffffffffffffffffffffffffff1916149050919050565b600033905090565b600073ffffffffffffffffffffffffffffffffffffffff168373ffffffffffffffffffffffffffffffffffffffff161415611292576040517f08c379a000000000000000000000000000000000000000000000000000000000815260040161128990613199565b60405180910390fd5b600073ffffffffffffffffffffffffffffffffffffffff168273ffffffffffffffffffffffffffffffffffffffff161415611302576040517f08c379a00000000000000000000000000000000000000000000000000000000081526004016112f990613039565b60405180910390fd5b80600160008573ffffffffffffffffffffffffffffffffffffffff1673ffffffffffffffffffffffffffffffffffffffff16815260200190815260200160002060008473ffffffffffffffffffffffffffffffffffffffff1673ffffffffffffffffffffffffffffffffffffffff168152602001908152602001600020819055508173ffffffffffffffffffffffffffffffffffffffff168373ffffffffffffffffffffffffffffffffffffffff167f8c5be1e5ebec7d5bd14f71427d1e84f3dd0314c0f7b2291e5b200ac8c7c3b925836040516113e09190613219565b60405180910390a3505050565b600073ffffffffffffffffffffffffffffffffffffffff168373ffffffffffffffffffffffffffffffffffffffff16141561145d576040517f08c379a000000000000000000000000000000000000000000000000000000000815260040161145490613179565b60405180910390fd5b600073ffffffffffffffffffffffffffffffffffffffff168273ffffffffffffffffffffffffffffffffffffffff1614156114cd576040517f08c379a00000000000000000000000000000000000000000000000000000000081526004016114c490612fd9565b60405180910390fd5b6114d8838383612088565b60008060008573ffffffffffffffffffffffffffffffffffffffff1673ffffffffffffffffffffffffffffffffffffffff1681526020019081526020016000205490508181101561155e576040517f08c379a000000000000000000000000000000000000000000000000000000000815260040161155590613079565b60405180910390fd5b818161156a9190613357565b6000808673ffffffffffffffffffffffffffffffffffffffff1673ffffffffffffffffffffffffffffffffffffffff16815260200190815260200160002081905550816000808573ffffffffffffffffffffffffffffffffffffffff1673ffffffffffffffffffffffffffffffffffffffff16815260200190815260200160002060008282546115fa9190613276565b925050819055508273ffffffffffffffffffffffffffffffffffffffff168473ffffffffffffffffffffffffffffffffffffffff167fddf252ad1be2c89b69c2b068fc378daa952ba7f163c4a11628f55a4df523b3ef8460405161165e9190613219565b60405180910390a350505050565b6116768282610c48565b6117055761169b8173ffffffffffffffffffffffffffffffffffffffff1660146120e0565b6116a98360001c60206120e0565b6040516020016116ba929190612dd3565b6040516020818303038152906040526040517f08c379a00000000000000000000000000000000000000000000000000000000081526004016116fc9190612f57565b60405180910390fd5b5050565b6117138282610c48565b6117e65760016009600084815260200190815260200160002060000160008373ffffffffffffffffffffffffffffffffffffffff1673ffffffffffffffffffffffffffffffffffffffff16815260200190815260200160002060006101000a81548160ff02191690831515021790555061178b61121a565b73ffffffffffffffffffffffffffffffffffffffff168173ffffffffffffffffffffffffffffffffffffffff16837f2f8788117e7eff1d82e926ec794901d17c78024a50270940304540a733656f0d60405160405180910390a45b5050565b60007f000000000000000000000000000000000000000000000000000000000000000046141561183c577f000000000000000000000000000000000000000000000000000000000000000090506118aa565b6118a77f00000000000000000000000000000000000000000000000000000000000000007f00000000000000000000000000000000000000000000000000000000000000007f00000000000000000000000000000000000000000000000000000000000000006123da565b90505b90565b6118b78282610c48565b1561198b5760006009600084815260200190815260200160002060000160008373ffffffffffffffffffffffffffffffffffffffff1673ffffffffffffffffffffffffffffffffffffffff16815260200190815260200160002060006101000a81548160ff02191690831515021790555061193061121a565b73ffffffffffffffffffffffffffffffffffffffff168173ffffffffffffffffffffffffffffffffffffffff16837ff6391f5c32d9c69d2a47ea670b442974b53935d1edc7fd64eb21e047a839171b60405160405180910390a45b5050565b611997610ab4565b6119d6576040517f08c379a00000000000000000000000000000000000000000000000000000000081526004016119cd90612ff9565b60405180910390fd5b6000600a60006101000a81548160ff0219169083151502179055507f5db9ee0a495bf2e6ff9c91a7834c1ba4fdd244a5e8aa4e537bd38aeae4b073aa611a1a61121a565b604051611a279190612e0d565b60405180910390a1565b600073ffffffffffffffffffffffffffffffffffffffff168273ffffffffffffffffffffffffffffffffffffffff161415611aa1576040517f08c379a0000000000000000000000000000000000000000000000000000000008152600401611a9890613159565b60405180910390fd5b611aad82600083612088565b60008060008473ffffffffffffffffffffffffffffffffffffffff1673ffffffffffffffffffffffffffffffffffffffff16815260200190815260200160002054905081811015611b33576040517f08c379a0000000000000000000000000000000000000000000000000000000008152600401611b2a90613019565b60405180910390fd5b8181611b3f9190613357565b6000808573ffffffffffffffffffffffffffffffffffffffff1673ffffffffffffffffffffffffffffffffffffffff168152602001908152602001600020819055508160026000828254611b939190613357565b92505081905550600073ffffffffffffffffffffffffffffffffffffffff168373ffffffffffffffffffffffffffffffffffffffff167fddf252ad1be2c89b69c2b068fc378daa952ba7f163c4a11628f55a4df523b3ef84604051611bf89190613219565b60405180910390a3505050565b60008060008411611c4b576040517f08c379a0000000000000000000000000000000000000000000000000000000008152600401611c42906131b9565b60405180910390fd5b611c5560086111a2565b841115611c97576040517f08c379a0000000000000000000000000000000000000000000000000000000008152600401611c8e90612f99565b60405180910390fd5b6000611caf858560000161241490919063ffffffff16565b90508360000180549050811415611ccd576000809250925050611d1c565b6001846001018281548110611d0b577f4e487b7100000000000000000000000000000000000000000000000000000000600052603260045260246000fd5b906000526020600020015492509250505b9250929050565b611d2b610ab4565b15611d6b576040517f08c379a0000000000000000000000000000000000000000000000000000000008152600401611d62906130b9565b60405180910390fd5b6001600a60006101000a81548160ff0219169083151502179055507f62e78cea01bee320cd4e420270b5ea74000d11b0c9f74754ebdbfc544b05a258611daf61121a565b604051611dbc9190612e0d565b60405180910390a1565b6000611dd2600861253a565b6000611dde60086111a2565b90507f8030e83b04d87bef53480e26263266d6ca66863aa8506aca6f2559d18aa1cb6781604051611e0f9190613219565b60405180910390a18091505090565b600080600b60008473ffffffffffffffffffffffffffffffffffffffff1673ffffffffffffffffffffffffffffffffffffffff1681526020019081526020016000209050611e6b816111a2565b9150611e768161253a565b50919050565b6000611e8f611e896117ea565b83612550565b9050919050565b60007f7fffffffffffffffffffffffffffffff5d576e7357a4501ddfe92f46681b20a08260001c1115611efe576040517f08c379a0000000000000000000000000000000000000000000000000000000008152600401611ef590613099565b60405180910390fd5b601b8460ff161480611f135750601c8460ff16145b611f52576040517f08c379a0000000000000000000000000000000000000000000000000000000008152600401611f49906130d9565b60405180910390fd5b600060018686868660405160008152602001604052604051611f779493929190612f12565b6020604051602081039080840390855afa158015611f99573d6000803e3d6000fd5b505050602060405103519050600073ffffffffffffffffffffffffffffffffffffffff168173ffffffffffffffffffffffffffffffffffffffff161415612015576040517f08c379a000000000000000000000000000000000000000000000000000000000815260040161200c90612f79565b60405180910390fd5b80915050949350505050565b612071600560008373ffffffffffffffffffffffffffffffffffffffff1673ffffffffffffffffffffffffffffffffffffffff16815260200190815260200160002061206c83610aef565b612583565b50565b6120866006612081610758565b612583565b565b612090610ab4565b156120d0576040517f08c379a00000000000000000000000000000000000000000000000000000000081526004016120c7906130b9565b60405180910390fd5b6120db8383836110e3565b505050565b6060600060028360026120f391906132fd565b6120fd9190613276565b67ffffffffffffffff81111561213c577f4e487b7100000000000000000000000000000000000000000000000000000000600052604160045260246000fd5b6040519080825280601f01601f19166020018201604052801561216e5781602001600182028036833780820191505090505b5090507f3000000000000000000000000000000000000000000000000000000000000000816000815181106121cc577f4e487b7100000000000000000000000000000000000000000000000000000000600052603260045260246000fd5b60200101907effffffffffffffffffffffffffffffffffffffffffffffffffffffffffffff1916908160001a9053507f780000000000000000000000000000000000000000000000000000000000000081600181518110612256577f4e487b7100000000000000000000000000000000000000000000000000000000600052603260045260246000fd5b60200101907effffffffffffffffffffffffffffffffffffffffffffffffffffffffffffff1916908160001a9053506000600184600261229691906132fd565b6122a09190613276565b90505b600181111561238c577f3031323334353637383961626364656600000000000000000000000000000000600f861660108110612308577f4e487b7100000000000000000000000000000000000000000000000000000000600052603260045260246000fd5b1a60f81b828281518110612345577f4e487b7100000000000000000000000000000000000000000000000000000000600052603260045260246000fd5b60200101907effffffffffffffffffffffffffffffffffffffffffffffffffffffffffffff1916908160001a905350600485901c94508061238590613449565b90506122a3565b50600084146123d0576040517f08c379a00000000000000000000000000000000000000000000000000000000081526004016123c790612fb9565b60405180910390fd5b8091505092915050565b600083838346306040516020016123f5959493929190612ebf565b6040516020818303038152906040528051906020012090509392505050565b6000808380549050141561242b5760009050612534565b600080848054905090505b808210156124b557600061244a8383612600565b905084868281548110612486577f4e487b7100000000000000000000000000000000000000000000000000000000600052603260045260246000fd5b9060005260206000200154111561249f578091506124af565b6001816124ac9190613276565b92505b50612436565b600082118015612513575083856001846124cf9190613357565b81548110612506577f4e487b7100000000000000000000000000000000000000000000000000000000600052603260045260246000fd5b9060005260206000200154145b1561252e576001826125259190613357565b92505050612534565b81925050505b92915050565b6001816000016000828254019250508190555050565b60008282604051602001612565929190612d9c565b60405160208183030381529060405280519060200120905092915050565b600061258f60086111a2565b90508061259e84600001612667565b10156125fb5782600001819080600181540180825580915050600190039060005260206000200160009091909190915055826001018290806001815401808255809150506001900390600052602060002001600090919091909150555b505050565b60006002808361261091906134af565b60028561261d91906134af565b6126279190613276565b61263191906132cc565b60028361263e91906132cc565b60028561264b91906132cc565b6126559190613276565b61265f9190613276565b905092915050565b6000808280549050141561267e57600090506126d5565b81600183805490506126909190613357565b815481106126c7577f4e487b7100000000000000000000000000000000000000000000000000000000600052603260045260246000fd5b906000526020600020015490505b919050565b6000813590506126e981613b44565b92915050565b6000813590506126fe81613b5b565b92915050565b60008135905061271381613b72565b92915050565b60008135905061272881613b89565b92915050565b60008135905061273d81613ba0565b92915050565b60006020828403121561275557600080fd5b6000612763848285016126da565b91505092915050565b6000806040838503121561277f57600080fd5b600061278d858286016126da565b925050602061279e858286016126da565b9150509250929050565b6000806000606084860312156127bd57600080fd5b60006127cb868287016126da565b93505060206127dc868287016126da565b92505060406127ed86828701612719565b9150509250925092565b600080600080600080600060e0888a03121561281257600080fd5b60006128208a828b016126da565b97505060206128318a828b016126da565b96505060406128428a828b01612719565b95505060606128538a828b01612719565b94505060806128648a828b0161272e565b93505060a06128758a828b016126ef565b92505060c06128868a828b016126ef565b91505092959891949750929550565b600080604083850312156128a857600080fd5b60006128b6858286016126da565b92505060206128c785828601612719565b9150509250929050565b6000602082840312156128e357600080fd5b60006128f1848285016126ef565b91505092915050565b6000806040838503121561290d57600080fd5b600061291b858286016126ef565b925050602061292c858286016126da565b9150509250929050565b60006020828403121561294857600080fd5b600061295684828501612704565b91505092915050565b60006020828403121561297157600080fd5b600061297f84828501612719565b91505092915050565b6129918161338b565b82525050565b6129a08161339d565b82525050565b6129af816133a9565b82525050565b6129c66129c1826133a9565b6134a5565b82525050565b60006129d78261324f565b6129e1818561325a565b93506129f1818560208601613416565b6129fa8161356d565b840191505092915050565b6000612a108261324f565b612a1a818561326b565b9350612a2a818560208601613416565b80840191505092915050565b6000612a4360188361325a565b9150612a4e8261357e565b602082019050919050565b6000612a66601d8361325a565b9150612a71826135a7565b602082019050919050565b6000612a8960208361325a565b9150612a94826135d0565b602082019050919050565b6000612aac60238361325a565b9150612ab7826135f9565b604082019050919050565b6000612acf60148361325a565b9150612ada82613648565b602082019050919050565b6000612af260228361325a565b9150612afd82613671565b604082019050919050565b6000612b1560228361325a565b9150612b20826136c0565b604082019050919050565b6000612b3860028361326b565b9150612b438261370f565b600282019050919050565b6000612b5b601d8361325a565b9150612b6682613738565b602082019050919050565b6000612b7e60268361325a565b9150612b8982613761565b604082019050919050565b6000612ba160228361325a565b9150612bac826137b0565b604082019050919050565b6000612bc460108361325a565b9150612bcf826137ff565b602082019050919050565b6000612be760228361325a565b9150612bf282613828565b604082019050919050565b6000612c0a601e8361325a565b9150612c1582613877565b602082019050919050565b6000612c2d60288361325a565b9150612c38826138a0565b604082019050919050565b6000612c5060248361325a565b9150612c5b826138ef565b604082019050919050565b6000612c7360218361325a565b9150612c7e8261393e565b604082019050919050565b6000612c9660258361325a565b9150612ca18261398d565b604082019050919050565b6000612cb960248361325a565b9150612cc4826139dc565b604082019050919050565b6000612cdc60168361325a565b9150612ce782613a2b565b602082019050919050565b6000612cff60178361326b565b9150612d0a82613a54565b601782019050919050565b6000612d2260258361325a565b9150612d2d82613a7d565b604082019050919050565b6000612d4560118361326b565b9150612d5082613acc565b601182019050919050565b6000612d68602f8361325a565b9150612d7382613af5565b604082019050919050565b612d87816133ff565b82525050565b612d9681613409565b82525050565b6000612da782612b2b565b9150612db382856129b5565b602082019150612dc382846129b5565b6020820191508190509392505050565b6000612dde82612cf2565b9150612dea8285612a05565b9150612df582612d38565b9150612e018284612a05565b91508190509392505050565b6000602082019050612e226000830184612988565b92915050565b6000602082019050612e3d6000830184612997565b92915050565b6000602082019050612e5860008301846129a6565b92915050565b600060c082019050612e7360008301896129a6565b612e806020830188612988565b612e8d6040830187612988565b612e9a6060830186612d7e565b612ea76080830185612d7e565b612eb460a0830184612d7e565b979650505050505050565b600060a082019050612ed460008301886129a6565b612ee160208301876129a6565b612eee60408301866129a6565b612efb6060830185612d7e565b612f086080830184612988565b9695505050505050565b6000608082019050612f2760008301876129a6565b612f346020830186612d8d565b612f4160408301856129a6565b612f4e60608301846129a6565b95945050505050565b60006020820190508181036000830152612f7181846129cc565b905092915050565b60006020820190508181036000830152612f9281612a36565b9050919050565b60006020820190508181036000830152612fb281612a59565b9050919050565b60006020820190508181036000830152612fd281612a7c565b9050919050565b60006020820190508181036000830152612ff281612a9f565b9050919050565b6000602082019050818103600083015261301281612ac2565b9050919050565b6000602082019050818103600083015261303281612ae5565b9050919050565b6000602082019050818103600083015261305281612b08565b9050919050565b6000602082019050818103600083015261307281612b4e565b9050919050565b6000602082019050818103600083015261309281612b71565b9050919050565b600060208201905081810360008301526130b281612b94565b9050919050565b600060208201905081810360008301526130d281612bb7565b9050919050565b600060208201905081810360008301526130f281612bda565b9050919050565b6000602082019050818103600083015261311281612bfd565b9050919050565b6000602082019050818103600083015261313281612c20565b9050919050565b6000602082019050818103600083015261315281612c43565b9050919050565b6000602082019050818103600083015261317281612c66565b9050919050565b6000602082019050818103600083015261319281612c89565b9050919050565b600060208201905081810360008301526131b281612cac565b9050919050565b600060208201905081810360008301526131d281612ccf565b9050919050565b600060208201905081810360008301526131f281612d15565b9050919050565b6000602082019050818103600083015261321281612d5b565b9050919050565b600060208201905061322e6000830184612d7e565b92915050565b60006020820190506132496000830184612d8d565b92915050565b600081519050919050565b600082825260208201905092915050565b600081905092915050565b6000613281826133ff565b915061328c836133ff565b9250827fffffffffffffffffffffffffffffffffffffffffffffffffffffffffffffffff038211156132c1576132c06134e0565b5b828201905092915050565b60006132d7826133ff565b91506132e2836133ff565b9250826132f2576132f161350f565b5b828204905092915050565b6000613308826133ff565b9150613313836133ff565b9250817fffffffffffffffffffffffffffffffffffffffffffffffffffffffffffffffff048311821515161561334c5761334b6134e0565b5b828202905092915050565b6000613362826133ff565b915061336d836133ff565b9250828210156133805761337f6134e0565b5b828203905092915050565b6000613396826133df565b9050919050565b60008115159050919050565b6000819050919050565b60007fffffffff0000000000000000000000000000000000000000000000000000000082169050919050565b600073ffffffffffffffffffffffffffffffffffffffff82169050919050565b6000819050919050565b600060ff82169050919050565b60005b83811015613434578082015181840152602081019050613419565b83811115613443576000848401525b50505050565b6000613454826133ff565b91506000821415613468576134676134e0565b5b600182039050919050565b6000600282049050600182168061348b57607f821691505b6020821081141561349f5761349e61353e565b5b50919050565b6000819050919050565b60006134ba826133ff565b91506134c5836133ff565b9250826134d5576134d461350f565b5b828206905092915050565b7f4e487b7100000000000000000000000000000000000000000000000000000000600052601160045260246000fd5b7f4e487b7100000000000000000000000000000000000000000000000000000000600052601260045260246000fd5b7f4e487b7100000000000000000000000000000000000000000000000000000000600052602260045260246000fd5b6000601f19601f8301169050919050565b7f45434453413a20696e76616c6964207369676e61747572650000000000000000600082015250565b7f4552433230536e617073686f743a206e6f6e6578697374656e74206964000000600082015250565b7f537472696e67733a20686578206c656e67746820696e73756666696369656e74600082015250565b7f45524332303a207472616e7366657220746f20746865207a65726f206164647260008201527f6573730000000000000000000000000000000000000000000000000000000000602082015250565b7f5061757361626c653a206e6f7420706175736564000000000000000000000000600082015250565b7f45524332303a206275726e20616d6f756e7420657863656564732062616c616e60008201527f6365000000000000000000000000000000000000000000000000000000000000602082015250565b7f45524332303a20617070726f766520746f20746865207a65726f20616464726560008201527f7373000000000000000000000000000000000000000000000000000000000000602082015250565b7f1901000000000000000000000000000000000000000000000000000000000000600082015250565b7f45524332305065726d69743a206578706972656420646561646c696e65000000600082015250565b7f45524332303a207472616e7366657220616d6f756e742065786365656473206260008201527f616c616e63650000000000000000000000000000000000000000000000000000602082015250565b7f45434453413a20696e76616c6964207369676e6174757265202773272076616c60008201527f7565000000000000000000000000000000000000000000000000000000000000602082015250565b7f5061757361626c653a2070617573656400000000000000000000000000000000600082015250565b7f45434453413a20696e76616c6964207369676e6174757265202776272076616c60008201527f7565000000000000000000000000000000000000000000000000000000000000602082015250565b7f45524332305065726d69743a20696e76616c6964207369676e61747572650000600082015250565b7f45524332303a207472616e7366657220616d6f756e742065786365656473206160008201527f6c6c6f77616e6365000000000000000000000000000000000000000000000000602082015250565b7f45524332303a206275726e20616d6f756e74206578636565647320616c6c6f7760008201527f616e636500000000000000000000000000000000000000000000000000000000602082015250565b7f45524332303a206275726e2066726f6d20746865207a65726f2061646472657360008201527f7300000000000000000000000000000000000000000000000000000000000000602082015250565b7f45524332303a207472616e736665722066726f6d20746865207a65726f20616460008201527f6472657373000000000000000000000000000000000000000000000000000000602082015250565b7f45524332303a20617070726f76652066726f6d20746865207a65726f2061646460008201527f7265737300000000000000000000000000000000000000000000000000000000602082015250565b7f4552433230536e617073686f743a206964206973203000000000000000000000600082015250565b7f416363657373436f6e74726f6c3a206163636f756e7420000000000000000000600082015250565b7f45524332303a2064656372656173656420616c6c6f77616e63652062656c6f7760008201527f207a65726f000000000000000000000000000000000000000000000000000000602082015250565b7f206973206d697373696e6720726f6c6520000000000000000000000000000000600082015250565b7f416363657373436f6e74726f6c3a2063616e206f6e6c792072656e6f756e636560008201527f20726f6c657320666f722073656c660000000000000000000000000000000000602082015250565b613b4d8161338b565b8114613b5857600080fd5b50565b613b64816133a9565b8114613b6f57600080fd5b50565b613b7b816133b3565b8114613b8657600080fd5b50565b613b92816133ff565b8114613b9d57600080fd5b50565b613ba981613409565b8114613bb457600080fd5b5056fea264697066735822122082bb6acf7749bf3c4dda4c0073fee7532b07e331d0f6881911d940fc4580414964736f6c63430008040033",
    "immutableReferences": {
        "2059": [
            {
                "length": 32,
                "start": 3860
            }
        ],
        "2758": [
            {
                "length": 32,
                "start": 6166
            }
        ],
        "2760": [
            {
                "length": 32,
                "start": 6126
            }
        ],
        "2762": [
            {
                "length": 32,
                "start": 6242
            }
        ],
        "2764": [
            {
                "length": 32,
                "start": 6275
            }
        ],
        "2766": [
            {
                "length": 32,
                "start": 6209
            }
        ]
    },
    "source": "// SPDX-License-Identifier: MIT\npragma solidity ^0.8.0;\n\nimport \"@openzeppelin/contracts/token/ERC20/ERC20.sol\";\nimport \"@openzeppelin/contracts/token/ERC20/extensions/ERC20Burnable.sol\";\nimport \"@openzeppelin/contracts/token/ERC20/extensions/ERC20Snapshot.sol\";\nimport \"@openzeppelin/contracts/access/AccessControl.sol\";\nimport \"@openzeppelin/contracts/security/Pausable.sol\";\nimport \"@openzeppelin/contracts/token/ERC20/extensions/draft-ERC20Permit.sol\";\n\ncontract CMKToken is ERC20, ERC20Burnable, ERC20Snapshot, AccessControl, Pausable, ERC20Permit {\n    bytes32 public constant SNAPSHOT_ROLE = keccak256(\"SNAPSHOT_ROLE\");\n    bytes32 public constant PAUSER_ROLE = keccak256(\"PAUSER_ROLE\");\n\n    constructor() ERC20(\"Credmark\", \"CMK\") ERC20Permit(\"Credmark\") {\n        _setupRole(DEFAULT_ADMIN_ROLE, msg.sender);\n        _setupRole(SNAPSHOT_ROLE, msg.sender);\n        _setupRole(PAUSER_ROLE, msg.sender);\n        _mint(msg.sender, 100000000 * 10 ** decimals());\n    }\n\n    function snapshot() public {\n        require(hasRole(SNAPSHOT_ROLE, msg.sender));\n        _snapshot();\n    }\n\n    function pause() public {\n        require(hasRole(PAUSER_ROLE, msg.sender));\n        _pause();\n    }\n\n    function unpause() public {\n        require(hasRole(PAUSER_ROLE, msg.sender));\n        _unpause();\n    }\n\n    function _beforeTokenTransfer(address from, address to, uint256 amount)\n        internal\n        whenNotPaused\n        override(ERC20, ERC20Snapshot)\n    {\n        super._beforeTokenTransfer(from, to, amount);\n    }\n}",
    "sourcePath": "/Users/credmark/repos/cmk/contracts/CMKToken.sol",
    "compiler": {
        "name": "solc",
        "version": "0.8.4+commit.c7e474f2.Emscripten.clang"
    },
    "schemaVersion": "3.3.3",
    "updatedAt": "2021-06-11T20:40:45.355Z",
    "devdoc": {
        "kind": "dev",
        "methods": {
            "DOMAIN_SEPARATOR()": {
                "details": "See {IERC20Permit-DOMAIN_SEPARATOR}."
            },
            "allowance(address,address)": {
                "details": "See {IERC20-allowance}."
            },
            "approve(address,uint256)": {
                "details": "See {IERC20-approve}. Requirements: - `spender` cannot be the zero address."
            },
            "balanceOf(address)": {
                "details": "See {IERC20-balanceOf}."
            },
            "balanceOfAt(address,uint256)": {
                "details": "Retrieves the balance of `account` at the time `snapshotId` was created."
            },
            "burn(uint256)": {
                "details": "Destroys `amount` tokens from the caller. See {ERC20-_burn}."
            },
            "burnFrom(address,uint256)": {
                "details": "Destroys `amount` tokens from `account`, deducting from the caller's allowance. See {ERC20-_burn} and {ERC20-allowance}. Requirements: - the caller must have allowance for ``accounts``'s tokens of at least `amount`."
            },
            "decimals()": {
                "details": "Returns the number of decimals used to get its user representation. For example, if `decimals` equals `2`, a balance of `505` tokens should be displayed to a user as `5,05` (`505 / 10 ** 2`). Tokens usually opt for a value of 18, imitating the relationship between Ether and Wei. This is the value {ERC20} uses, unless this function is overridden; NOTE: This information is only used for _display_ purposes: it in no way affects any of the arithmetic of the contract, including {IERC20-balanceOf} and {IERC20-transfer}."
            },
            "decreaseAllowance(address,uint256)": {
                "details": "Atomically decreases the allowance granted to `spender` by the caller. This is an alternative to {approve} that can be used as a mitigation for problems described in {IERC20-approve}. Emits an {Approval} event indicating the updated allowance. Requirements: - `spender` cannot be the zero address. - `spender` must have allowance for the caller of at least `subtractedValue`."
            },
            "getRoleAdmin(bytes32)": {
                "details": "Returns the admin role that controls `role`. See {grantRole} and {revokeRole}. To change a role's admin, use {_setRoleAdmin}."
            },
            "grantRole(bytes32,address)": {
                "details": "Grants `role` to `account`. If `account` had not been already granted `role`, emits a {RoleGranted} event. Requirements: - the caller must have ``role``'s admin role."
            },
            "hasRole(bytes32,address)": {
                "details": "Returns `true` if `account` has been granted `role`."
            },
            "increaseAllowance(address,uint256)": {
                "details": "Atomically increases the allowance granted to `spender` by the caller. This is an alternative to {approve} that can be used as a mitigation for problems described in {IERC20-approve}. Emits an {Approval} event indicating the updated allowance. Requirements: - `spender` cannot be the zero address."
            },
            "name()": {
                "details": "Returns the name of the token."
            },
            "nonces(address)": {
                "details": "See {IERC20Permit-nonces}."
            },
            "paused()": {
                "details": "Returns true if the contract is paused, and false otherwise."
            },
            "permit(address,address,uint256,uint256,uint8,bytes32,bytes32)": {
                "details": "See {IERC20Permit-permit}."
            },
            "renounceRole(bytes32,address)": {
                "details": "Revokes `role` from the calling account. Roles are often managed via {grantRole} and {revokeRole}: this function's purpose is to provide a mechanism for accounts to lose their privileges if they are compromised (such as when a trusted device is misplaced). If the calling account had been granted `role`, emits a {RoleRevoked} event. Requirements: - the caller must be `account`."
            },
            "revokeRole(bytes32,address)": {
                "details": "Revokes `role` from `account`. If `account` had been granted `role`, emits a {RoleRevoked} event. Requirements: - the caller must have ``role``'s admin role."
            },
            "supportsInterface(bytes4)": {
                "details": "See {IERC165-supportsInterface}."
            },
            "symbol()": {
                "details": "Returns the symbol of the token, usually a shorter version of the name."
            },
            "totalSupply()": {
                "details": "See {IERC20-totalSupply}."
            },
            "totalSupplyAt(uint256)": {
                "details": "Retrieves the total supply at the time `snapshotId` was created."
            },
            "transfer(address,uint256)": {
                "details": "See {IERC20-transfer}. Requirements: - `recipient` cannot be the zero address. - the caller must have a balance of at least `amount`."
            },
            "transferFrom(address,address,uint256)": {
                "details": "See {IERC20-transferFrom}. Emits an {Approval} event indicating the updated allowance. This is not required by the EIP. See the note at the beginning of {ERC20}. Requirements: - `sender` and `recipient` cannot be the zero address. - `sender` must have a balance of at least `amount`. - the caller must have allowance for ``sender``'s tokens of at least `amount`."
            }
        },
        "version": 1
    },
    "userdoc": {
        "kind": "user",
        "methods": {},
        "version": 1
    }
}